{
  "_format": "hh-sol-artifact-1",
  "contractName": "BloodBank",
  "sourceName": "contracts/BloodBank.sol",
  "abi": [
    {
      "inputs": [],
      "stateMutability": "nonpayable",
      "type": "constructor"
    },
    {
      "anonymous": false,
      "inputs": [
        {
          "indexed": false,
          "internalType": "string",
          "name": "trackingId",
          "type": "string"
        },
        {
          "indexed": false,
          "internalType": "string",
          "name": "donorIdentifier",
          "type": "string"
        },
        {
          "indexed": false,
          "internalType": "string",
          "name": "bloodGroup",
          "type": "string"
        }
      ],
      "name": "DonorAdded",
      "type": "event"
    },
    {
      "anonymous": false,
      "inputs": [
        {
          "indexed": false,
          "internalType": "string",
          "name": "trackingId",
          "type": "string"
        },
        {
          "indexed": false,
          "internalType": "string",
          "name": "location",
          "type": "string"
        },
        {
          "indexed": false,
          "internalType": "string",
          "name": "organization",
          "type": "string"
        },
        {
          "indexed": false,
          "internalType": "bool",
          "name": "isUsed",
          "type": "bool"
        }
      ],
      "name": "UsageUpdated",
      "type": "event"
    },
    {
      "inputs": [
        {
          "internalType": "string",
          "name": "_trackingId",
          "type": "string"
        },
        {
          "internalType": "string",
          "name": "_donorIdentifier",
          "type": "string"
        },
        {
          "internalType": "string",
          "name": "_bloodGroup",
          "type": "string"
        }
      ],
      "name": "addDonor",
      "outputs": [],
      "stateMutability": "nonpayable",
      "type": "function"
    },
    {
      "inputs": [],
      "name": "admin",
      "outputs": [
        {
          "internalType": "address",
          "name": "",
          "type": "address"
        }
      ],
      "stateMutability": "view",
      "type": "function"
    },
    {
      "inputs": [
        {
          "internalType": "string",
          "name": "_donorIdentifier",
          "type": "string"
        }
      ],
      "name": "getBloodDetailsByAadhaar",
      "outputs": [
        {
          "internalType": "string",
          "name": "trackingId",
          "type": "string"
        },
        {
          "internalType": "string",
          "name": "group",
          "type": "string"
        },
        {
          "internalType": "string",
          "name": "location",
          "type": "string"
        },
        {
          "internalType": "string",
          "name": "organization",
          "type": "string"
        },
        {
          "internalType": "bool",
          "name": "isUsed",
          "type": "bool"
        },
        {
          "internalType": "uint256",
          "name": "timestamp",
          "type": "uint256"
        }
      ],
      "stateMutability": "view",
      "type": "function"
    },
    {
      "inputs": [
        {
          "internalType": "string",
          "name": "",
          "type": "string"
        }
      ],
      "name": "trackingIdExists",
      "outputs": [
        {
          "internalType": "bool",
          "name": "",
          "type": "bool"
        }
      ],
      "stateMutability": "view",
      "type": "function"
    },
    {
      "inputs": [
        {
          "internalType": "string",
          "name": "_trackingId",
          "type": "string"
        },
        {
          "internalType": "string",
          "name": "_location",
          "type": "string"
        },
        {
          "internalType": "string",
          "name": "_organization",
          "type": "string"
        },
        {
          "internalType": "bool",
          "name": "_isUsed",
          "type": "bool"
        }
      ],
      "name": "updateUsage",
      "outputs": [],
      "stateMutability": "nonpayable",
      "type": "function"
    }
  ],
  "bytecode": "0x608060405234801561001057600080fd5b50336000806101000a81548173ffffffffffffffffffffffffffffffffffffffff021916908373ffffffffffffffffffffffffffffffffffffffff160217905550611549806100606000396000f3fe608060405234801561001057600080fd5b50600436106100575760003560e01c80630e5088241461005c5780638c927e4314610078578063a9288138146100a8578063af0386b9146100c4578063f851a440146100f9575b600080fd5b61007660048036038101906100719190610bfa565b610117565b005b610092600480360381019061008d9190610cb5565b6102bf565b60405161009f9190610d0d565b60405180910390f35b6100c260048036038101906100bd9190610d28565b6102f5565b005b6100de60048036038101906100d99190610cb5565b6105eb565b6040516100f096959493929190610e67565b60405180910390f35b610101610a44565b60405161010e9190610f25565b60405180910390f35b60008054906101000a900473ffffffffffffffffffffffffffffffffffffffff1673ffffffffffffffffffffffffffffffffffffffff163373ffffffffffffffffffffffffffffffffffffffff16146101a5576040517f08c379a000000000000000000000000000000000000000000000000000000000815260040161019c90610fb2565b60405180910390fd5b6002846040516101b5919061100e565b908152602001604051809103902060009054906101000a900460ff16610210576040517f08c379a000000000000000000000000000000000000000000000000000000000815260040161020790611071565b60405180910390fd5b6000600185604051610222919061100e565b9081526020016040518091039020905083816003019081610243919061129d565b5082816004019081610255919061129d565b50818160050160006101000a81548160ff0219169083151502179055504281600601819055507ff2facc3f1c17c65f7b937e4f3c9ed6f82a251b9e794c3303f895e8382c42183c858585856040516102b0949392919061136f565b60405180910390a15050505050565b6002818051602081018201805184825260208301602085012081835280955050505050506000915054906101000a900460ff1681565b60008054906101000a900473ffffffffffffffffffffffffffffffffffffffff1673ffffffffffffffffffffffffffffffffffffffff163373ffffffffffffffffffffffffffffffffffffffff1614610383576040517f08c379a000000000000000000000000000000000000000000000000000000000815260040161037a90610fb2565b60405180910390fd5b600283604051610393919061100e565b908152602001604051809103902060009054906101000a900460ff16156103ef576040517f08c379a00000000000000000000000000000000000000000000000000000000081526004016103e690611415565b60405180910390fd5b6040518060e001604052808481526020018381526020018281526020016040518060400160405280600a81526020017f42616e6b205661756c740000000000000000000000000000000000000000000081525081526020016040518060400160405280601281526020017f43656e7472616c20426c6f6f642042616e6b000000000000000000000000000081525081526020016000151581526020014281525060018460405161049f919061100e565b908152602001604051809103902060008201518160000190816104c2919061129d565b5060208201518160010190816104d8919061129d565b5060408201518160020190816104ee919061129d565b506060820151816003019081610504919061129d565b50608082015181600401908161051a919061129d565b5060a08201518160050160006101000a81548160ff02191690831515021790555060c08201518160060155905050600160028460405161055a919061100e565b908152602001604051809103902060006101000a81548160ff02191690831515021790555082600383604051610590919061100e565b908152602001604051809103902090816105aa919061129d565b507f885ec8f95678e7a3ede77c5f1929dcca62d2d49ef6cdf371a3128225e2fbd6468383836040516105de93929190611435565b60405180910390a1505050565b6060806060806000806000600388604051610606919061100e565b9081526020016040518091039020805461061f906110c0565b80601f016020809104026020016040519081016040528092919081815260200182805461064b906110c0565b80156106985780601f1061066d57610100808354040283529160200191610698565b820191906000526020600020905b81548152906001019060200180831161067b57829003601f168201915b5050505050905060008151116106e3576040517f08c379a00000000000000000000000000000000000000000000000000000000081526004016106da906114f3565b60405180910390fd5b60006001826040516106f5919061100e565b90815260200160405180910390206040518060e001604052908160008201805461071e906110c0565b80601f016020809104026020016040519081016040528092919081815260200182805461074a906110c0565b80156107975780601f1061076c57610100808354040283529160200191610797565b820191906000526020600020905b81548152906001019060200180831161077a57829003601f168201915b505050505081526020016001820180546107b0906110c0565b80601f01602080910402602001604051908101604052809291908181526020018280546107dc906110c0565b80156108295780601f106107fe57610100808354040283529160200191610829565b820191906000526020600020905b81548152906001019060200180831161080c57829003601f168201915b50505050508152602001600282018054610842906110c0565b80601f016020809104026020016040519081016040528092919081815260200182805461086e906110c0565b80156108bb5780601f10610890576101008083540402835291602001916108bb565b820191906000526020600020905b81548152906001019060200180831161089e57829003601f168201915b505050505081526020016003820180546108d4906110c0565b80601f0160208091040260200160405190810160405280929190818152602001828054610900906110c0565b801561094d5780601f106109225761010080835404028352916020019161094d565b820191906000526020600020905b81548152906001019060200180831161093057829003601f168201915b50505050508152602001600482018054610966906110c0565b80601f0160208091040260200160405190810160405280929190818152602001828054610992906110c0565b80156109df5780601f106109b4576101008083540402835291602001916109df565b820191906000526020600020905b8154815290600101906020018083116109c257829003601f168201915b505050505081526020016005820160009054906101000a900460ff16151515158152602001600682015481525050905080600001518160400151826060015183608001518460a001518560c00151975097509750975097509750505091939550919395565b60008054906101000a900473ffffffffffffffffffffffffffffffffffffffff1681565b6000604051905090565b600080fd5b600080fd5b600080fd5b600080fd5b6000601f19601f8301169050919050565b7f4e487b7100000000000000000000000000000000000000000000000000000000600052604160045260246000fd5b610acf82610a86565b810181811067ffffffffffffffff82111715610aee57610aed610a97565b5b80604052505050565b6000610b01610a68565b9050610b0d8282610ac6565b919050565b600067ffffffffffffffff821115610b2d57610b2c610a97565b5b610b3682610a86565b9050602081019050919050565b82818337600083830152505050565b6000610b65610b6084610b12565b610af7565b905082815260208101848484011115610b8157610b80610a81565b5b610b8c848285610b43565b509392505050565b600082601f830112610ba957610ba8610a7c565b5b8135610bb9848260208601610b52565b91505092915050565b60008115159050919050565b610bd781610bc2565b8114610be257600080fd5b50565b600081359050610bf481610bce565b92915050565b60008060008060808587031215610c1457610c13610a72565b5b600085013567ffffffffffffffff811115610c3257610c31610a77565b5b610c3e87828801610b94565b945050602085013567ffffffffffffffff811115610c5f57610c5e610a77565b5b610c6b87828801610b94565b935050604085013567ffffffffffffffff811115610c8c57610c8b610a77565b5b610c9887828801610b94565b9250506060610ca987828801610be5565b91505092959194509250565b600060208284031215610ccb57610cca610a72565b5b600082013567ffffffffffffffff811115610ce957610ce8610a77565b5b610cf584828501610b94565b91505092915050565b610d0781610bc2565b82525050565b6000602082019050610d226000830184610cfe565b92915050565b600080600060608486031215610d4157610d40610a72565b5b600084013567ffffffffffffffff811115610d5f57610d5e610a77565b5b610d6b86828701610b94565b935050602084013567ffffffffffffffff811115610d8c57610d8b610a77565b5b610d9886828701610b94565b925050604084013567ffffffffffffffff811115610db957610db8610a77565b5b610dc586828701610b94565b9150509250925092565b600081519050919050565b600082825260208201905092915050565b60005b83811015610e09578082015181840152602081019050610dee565b60008484015250505050565b6000610e2082610dcf565b610e2a8185610dda565b9350610e3a818560208601610deb565b610e4381610a86565b840191505092915050565b6000819050919050565b610e6181610e4e565b82525050565b600060c0820190508181036000830152610e818189610e15565b90508181036020830152610e958188610e15565b90508181036040830152610ea98187610e15565b90508181036060830152610ebd8186610e15565b9050610ecc6080830185610cfe565b610ed960a0830184610e58565b979650505050505050565b600073ffffffffffffffffffffffffffffffffffffffff82169050919050565b6000610f0f82610ee4565b9050919050565b610f1f81610f04565b82525050565b6000602082019050610f3a6000830184610f16565b92915050565b7f4f6e6c792061646d696e2063616e20706572666f726d2074686973206163746960008201527f6f6e000000000000000000000000000000000000000000000000000000000000602082015250565b6000610f9c602283610dda565b9150610fa782610f40565b604082019050919050565b60006020820190508181036000830152610fcb81610f8f565b9050919050565b600081905092915050565b6000610fe882610dcf565b610ff28185610fd2565b9350611002818560208601610deb565b80840191505092915050565b600061101a8284610fdd565b915081905092915050565b7f547261636b696e6720494420646f6573206e6f74206578697374000000000000600082015250565b600061105b601a83610dda565b915061106682611025565b602082019050919050565b6000602082019050818103600083015261108a8161104e565b9050919050565b7f4e487b7100000000000000000000000000000000000000000000000000000000600052602260045260246000fd5b600060028204905060018216806110d857607f821691505b6020821081036110eb576110ea611091565b5b50919050565b60008190508160005260206000209050919050565b60006020601f8301049050919050565b600082821b905092915050565b6000600883026111537fffffffffffffffffffffffffffffffffffffffffffffffffffffffffffffffff82611116565b61115d8683611116565b95508019841693508086168417925050509392505050565b6000819050919050565b600061119a61119561119084610e4e565b611175565b610e4e565b9050919050565b6000819050919050565b6111b48361117f565b6111c86111c0826111a1565b848454611123565b825550505050565b600090565b6111dd6111d0565b6111e88184846111ab565b505050565b5b8181101561120c576112016000826111d5565b6001810190506111ee565b5050565b601f82111561125157611222816110f1565b61122b84611106565b8101602085101561123a578190505b61124e61124685611106565b8301826111ed565b50505b505050565b600082821c905092915050565b600061127460001984600802611256565b1980831691505092915050565b600061128d8383611263565b9150826002028217905092915050565b6112a682610dcf565b67ffffffffffffffff8111156112bf576112be610a97565b5b6112c982546110c0565b6112d4828285611210565b600060209050601f83116001811461130757600084156112f5578287015190505b6112ff8582611281565b865550611367565b601f198416611315866110f1565b60005b8281101561133d57848901518255600182019150602085019450602081019050611318565b8683101561135a5784890151611356601f891682611263565b8355505b6001600288020188555050505b505050505050565b600060808201905081810360008301526113898187610e15565b9050818103602083015261139d8186610e15565b905081810360408301526113b18185610e15565b90506113c06060830184610cfe565b95945050505050565b7f547261636b696e6720494420616c726561647920657869737473000000000000600082015250565b60006113ff601a83610dda565b915061140a826113c9565b602082019050919050565b6000602082019050818103600083015261142e816113f2565b9050919050565b6000606082019050818103600083015261144f8186610e15565b905081810360208301526114638185610e15565b905081810360408301526114778184610e15565b9050949350505050565b7f4e6f207265636f72647320666f756e6420666f7220746869732041616468616160008201527f72204e756d626572000000000000000000000000000000000000000000000000602082015250565b60006114dd602883610dda565b91506114e882611481565b604082019050919050565b6000602082019050818103600083015261150c816114d0565b905091905056fea26469706673582212208e5597cc80c9426745a6ee1b65688c7a54bc9962006e2968cb31e4a50db79f8864736f6c63430008160033",
  "linkReferences": {},
  "deployedLinkReferences": {}
}